{
  "address": "0x9001C92457A00672E68087ae1265B033e100D096",
  "abi": [
    {
      "inputs": [
        {
          "internalType": "address",
          "name": "_lzEndpoint",
          "type": "address"
        }
      ],
      "stateMutability": "nonpayable",
      "type": "constructor"
    },
    {
      "inputs": [
        {
          "internalType": "bytes32",
          "name": "account",
          "type": "bytes32"
        }
      ],
      "name": "BlocklistUpgradeable__Blocked",
      "type": "error"
    },
    {
      "inputs": [
        {
          "internalType": "address",
          "name": "spender",
          "type": "address"
        },
        {
          "internalType": "uint256",
          "name": "allowance",
          "type": "uint256"
        },
        {
          "internalType": "uint256",
          "name": "needed",
          "type": "uint256"
        }
      ],
      "name": "ERC20InsufficientAllowance",
      "type": "error"
    },
    {
      "inputs": [
        {
          "internalType": "address",
          "name": "sender",
          "type": "address"
        },
        {
          "internalType": "uint256",
          "name": "balance",
          "type": "uint256"
        },
        {
          "internalType": "uint256",
          "name": "needed",
          "type": "uint256"
        }
      ],
      "name": "ERC20InsufficientBalance",
      "type": "error"
    },
    {
      "inputs": [
        {
          "internalType": "address",
          "name": "approver",
          "type": "address"
        }
      ],
      "name": "ERC20InvalidApprover",
      "type": "error"
    },
    {
      "inputs": [
        {
          "internalType": "address",
          "name": "receiver",
          "type": "address"
        }
      ],
      "name": "ERC20InvalidReceiver",
      "type": "error"
    },
    {
      "inputs": [
        {
          "internalType": "address",
          "name": "sender",
          "type": "address"
        }
      ],
      "name": "ERC20InvalidSender",
      "type": "error"
    },
    {
      "inputs": [
        {
          "internalType": "address",
          "name": "spender",
          "type": "address"
        }
      ],
      "name": "ERC20InvalidSpender",
      "type": "error"
    },
    {
      "inputs": [],
      "name": "InvalidDelegate",
      "type": "error"
    },
    {
      "inputs": [],
      "name": "InvalidEndpointCall",
      "type": "error"
    },
    {
      "inputs": [],
      "name": "InvalidInitialization",
      "type": "error"
    },
    {
      "inputs": [],
      "name": "InvalidLocalDecimals",
      "type": "error"
    },
    {
      "inputs": [
        {
          "internalType": "bytes",
          "name": "options",
          "type": "bytes"
        }
      ],
      "name": "InvalidOptions",
      "type": "error"
    },
    {
      "inputs": [],
      "name": "LzTokenUnavailable",
      "type": "error"
    },
    {
      "inputs": [
        {
          "internalType": "uint32",
          "name": "eid",
          "type": "uint32"
        }
      ],
      "name": "NoPeer",
      "type": "error"
    },
    {
      "inputs": [
        {
          "internalType": "uint256",
          "name": "msgValue",
          "type": "uint256"
        }
      ],
      "name": "NotEnoughNative",
      "type": "error"
    },
    {
      "inputs": [],
      "name": "NotInitializing",
      "type": "error"
    },
    {
      "inputs": [
        {
          "internalType": "address",
          "name": "addr",
          "type": "address"
        }
      ],
      "name": "OnlyEndpoint",
      "type": "error"
    },
    {
      "inputs": [
        {
          "internalType": "uint32",
          "name": "eid",
          "type": "uint32"
        },
        {
          "internalType": "bytes32",
          "name": "sender",
          "type": "bytes32"
        }
      ],
      "name": "OnlyPeer",
      "type": "error"
    },
    {
      "inputs": [],
      "name": "OnlySelf",
      "type": "error"
    },
    {
      "inputs": [
        {
          "internalType": "address",
          "name": "owner",
          "type": "address"
        }
      ],
      "name": "OwnableInvalidOwner",
      "type": "error"
    },
    {
      "inputs": [
        {
          "internalType": "address",
          "name": "account",
          "type": "address"
        }
      ],
      "name": "OwnableUnauthorizedAccount",
      "type": "error"
    },
    {
      "inputs": [
        {
          "internalType": "address",
          "name": "token",
          "type": "address"
        }
      ],
      "name": "SafeERC20FailedOperation",
      "type": "error"
    },
    {
      "inputs": [
        {
          "internalType": "bytes",
          "name": "result",
          "type": "bytes"
        }
      ],
      "name": "SimulationResult",
      "type": "error"
    },
    {
      "inputs": [
        {
          "internalType": "uint256",
          "name": "amountLD",
          "type": "uint256"
        },
        {
          "internalType": "uint256",
          "name": "minAmountLD",
          "type": "uint256"
        }
      ],
      "name": "SlippageExceeded",
      "type": "error"
    },
    {
      "anonymous": false,
      "inputs": [
        {
          "indexed": true,
          "internalType": "address",
          "name": "owner",
          "type": "address"
        },
        {
          "indexed": true,
          "internalType": "address",
          "name": "spender",
          "type": "address"
        },
        {
          "indexed": false,
          "internalType": "uint256",
          "name": "value",
          "type": "uint256"
        }
      ],
      "name": "Approval",
      "type": "event"
    },
    {
      "anonymous": false,
      "inputs": [
        {
          "indexed": true,
          "internalType": "bytes32",
          "name": "account",
          "type": "bytes32"
        }
      ],
      "name": "Blocklist_Added",
      "type": "event"
    },
    {
      "anonymous": false,
      "inputs": [
        {
          "indexed": true,
          "internalType": "bytes32",
          "name": "account",
          "type": "bytes32"
        }
      ],
      "name": "Blocklist_Removed",
      "type": "event"
    },
    {
      "anonymous": false,
      "inputs": [
        {
          "components": [
            {
              "internalType": "uint32",
              "name": "eid",
              "type": "uint32"
            },
            {
              "internalType": "uint16",
              "name": "msgType",
              "type": "uint16"
            },
            {
              "internalType": "bytes",
              "name": "options",
              "type": "bytes"
            }
          ],
          "indexed": false,
          "internalType": "struct EnforcedOptionParam[]",
          "name": "_enforcedOptions",
          "type": "tuple[]"
        }
      ],
      "name": "EnforcedOptionSet",
      "type": "event"
    },
    {
      "anonymous": false,
      "inputs": [
        {
          "indexed": false,
          "internalType": "uint64",
          "name": "version",
          "type": "uint64"
        }
      ],
      "name": "Initialized",
      "type": "event"
    },
    {
      "anonymous": false,
      "inputs": [
        {
          "indexed": false,
          "internalType": "address",
          "name": "inspector",
          "type": "address"
        }
      ],
      "name": "MsgInspectorSet",
      "type": "event"
    },
    {
      "anonymous": false,
      "inputs": [
        {
          "indexed": true,
          "internalType": "bytes32",
          "name": "guid",
          "type": "bytes32"
        },
        {
          "indexed": false,
          "internalType": "uint32",
          "name": "srcEid",
          "type": "uint32"
        },
        {
          "indexed": true,
          "internalType": "address",
          "name": "toAddress",
          "type": "address"
        },
        {
          "indexed": false,
          "internalType": "uint256",
          "name": "amountReceivedLD",
          "type": "uint256"
        }
      ],
      "name": "OFTReceived",
      "type": "event"
    },
    {
      "anonymous": false,
      "inputs": [
        {
          "indexed": true,
          "internalType": "bytes32",
          "name": "guid",
          "type": "bytes32"
        },
        {
          "indexed": false,
          "internalType": "uint32",
          "name": "dstEid",
          "type": "uint32"
        },
        {
          "indexed": true,
          "internalType": "address",
          "name": "fromAddress",
          "type": "address"
        },
        {
          "indexed": false,
          "internalType": "uint256",
          "name": "amountSentLD",
          "type": "uint256"
        },
        {
          "indexed": false,
          "internalType": "uint256",
          "name": "amountReceivedLD",
          "type": "uint256"
        }
      ],
      "name": "OFTSent",
      "type": "event"
    },
    {
      "anonymous": false,
      "inputs": [
        {
          "indexed": true,
          "internalType": "address",
          "name": "previousOwner",
          "type": "address"
        },
        {
          "indexed": true,
          "internalType": "address",
          "name": "newOwner",
          "type": "address"
        }
      ],
      "name": "OwnershipTransferred",
      "type": "event"
    },
    {
      "anonymous": false,
      "inputs": [
        {
          "indexed": false,
          "internalType": "uint32",
          "name": "eid",
          "type": "uint32"
        },
        {
          "indexed": false,
          "internalType": "bytes32",
          "name": "peer",
          "type": "bytes32"
        }
      ],
      "name": "PeerSet",
      "type": "event"
    },
    {
      "anonymous": false,
      "inputs": [
        {
          "indexed": false,
          "internalType": "address",
          "name": "preCrimeAddress",
          "type": "address"
        }
      ],
      "name": "PreCrimeSet",
      "type": "event"
    },
    {
      "anonymous": false,
      "inputs": [
        {
          "indexed": true,
          "internalType": "address",
          "name": "from",
          "type": "address"
        },
        {
          "indexed": true,
          "internalType": "address",
          "name": "to",
          "type": "address"
        },
        {
          "indexed": false,
          "internalType": "uint256",
          "name": "value",
          "type": "uint256"
        }
      ],
      "name": "Transfer",
      "type": "event"
    },
    {
      "inputs": [],
      "name": "SEND",
      "outputs": [
        {
          "internalType": "uint16",
          "name": "",
          "type": "uint16"
        }
      ],
      "stateMutability": "view",
      "type": "function"
    },
    {
      "inputs": [],
      "name": "SEND_AND_CALL",
      "outputs": [
        {
          "internalType": "uint16",
          "name": "",
          "type": "uint16"
        }
      ],
      "stateMutability": "view",
      "type": "function"
    },
    {
      "inputs": [
        {
          "internalType": "bytes32",
          "name": "account",
          "type": "bytes32"
        }
      ],
      "name": "addToBlocklist",
      "outputs": [],
      "stateMutability": "nonpayable",
      "type": "function"
    },
    {
      "inputs": [
        {
          "internalType": "address",
          "name": "account",
          "type": "address"
        }
      ],
      "name": "addToBlocklist",
      "outputs": [],
      "stateMutability": "nonpayable",
      "type": "function"
    },
    {
      "inputs": [
        {
          "internalType": "address",
          "name": "_addr",
          "type": "address"
        }
      ],
      "name": "addressToBytes32",
      "outputs": [
        {
          "internalType": "bytes32",
          "name": "",
          "type": "bytes32"
        }
      ],
      "stateMutability": "pure",
      "type": "function"
    },
    {
      "inputs": [
        {
          "components": [
            {
              "internalType": "uint32",
              "name": "srcEid",
              "type": "uint32"
            },
            {
              "internalType": "bytes32",
              "name": "sender",
              "type": "bytes32"
            },
            {
              "internalType": "uint64",
              "name": "nonce",
              "type": "uint64"
            }
          ],
          "internalType": "struct Origin",
          "name": "origin",
          "type": "tuple"
        }
      ],
      "name": "allowInitializePath",
      "outputs": [
        {
          "internalType": "bool",
          "name": "",
          "type": "bool"
        }
      ],
      "stateMutability": "view",
      "type": "function"
    },
    {
      "inputs": [
        {
          "internalType": "address",
          "name": "owner",
          "type": "address"
        },
        {
          "internalType": "address",
          "name": "spender",
          "type": "address"
        }
      ],
      "name": "allowance",
      "outputs": [
        {
          "internalType": "uint256",
          "name": "",
          "type": "uint256"
        }
      ],
      "stateMutability": "view",
      "type": "function"
    },
    {
      "inputs": [],
      "name": "approvalRequired",
      "outputs": [
        {
          "internalType": "bool",
          "name": "",
          "type": "bool"
        }
      ],
      "stateMutability": "pure",
      "type": "function"
    },
    {
      "inputs": [
        {
          "internalType": "address",
          "name": "spender",
          "type": "address"
        },
        {
          "internalType": "uint256",
          "name": "value",
          "type": "uint256"
        }
      ],
      "name": "approve",
      "outputs": [
        {
          "internalType": "bool",
          "name": "",
          "type": "bool"
        }
      ],
      "stateMutability": "nonpayable",
      "type": "function"
    },
    {
      "inputs": [
        {
          "internalType": "address",
          "name": "account",
          "type": "address"
        }
      ],
      "name": "balanceOf",
      "outputs": [
        {
          "internalType": "uint256",
          "name": "",
          "type": "uint256"
        }
      ],
      "stateMutability": "view",
      "type": "function"
    },
    {
      "inputs": [
        {
          "internalType": "address",
          "name": "from",
          "type": "address"
        },
        {
          "internalType": "uint256",
          "name": "amount",
          "type": "uint256"
        }
      ],
      "name": "burn",
      "outputs": [],
      "stateMutability": "nonpayable",
      "type": "function"
    },
    {
      "inputs": [
        {
          "internalType": "uint32",
          "name": "_eid",
          "type": "uint32"
        },
        {
          "internalType": "uint16",
          "name": "_msgType",
          "type": "uint16"
        },
        {
          "internalType": "bytes",
          "name": "_extraOptions",
          "type": "bytes"
        }
      ],
      "name": "combineOptions",
      "outputs": [
        {
          "internalType": "bytes",
          "name": "",
          "type": "bytes"
        }
      ],
      "stateMutability": "view",
      "type": "function"
    },
    {
      "inputs": [],
      "name": "decimalConversionRate",
      "outputs": [
        {
          "internalType": "uint256",
          "name": "",
          "type": "uint256"
        }
      ],
      "stateMutability": "view",
      "type": "function"
    },
    {
      "inputs": [],
      "name": "decimals",
      "outputs": [
        {
          "internalType": "uint8",
          "name": "",
          "type": "uint8"
        }
      ],
      "stateMutability": "pure",
      "type": "function"
    },
    {
      "inputs": [],
      "name": "endpoint",
      "outputs": [
        {
          "internalType": "contract ILayerZeroEndpointV2",
          "name": "",
          "type": "address"
        }
      ],
      "stateMutability": "view",
      "type": "function"
    },
    {
      "inputs": [
        {
          "internalType": "uint32",
          "name": "_eid",
          "type": "uint32"
        },
        {
          "internalType": "uint16",
          "name": "_msgType",
          "type": "uint16"
        }
      ],
      "name": "enforcedOptions",
      "outputs": [
        {
          "internalType": "bytes",
          "name": "",
          "type": "bytes"
        }
      ],
      "stateMutability": "view",
      "type": "function"
    },
    {
      "inputs": [
        {
          "internalType": "string",
          "name": "_name",
          "type": "string"
        },
        {
          "internalType": "string",
          "name": "_symbol",
          "type": "string"
        },
        {
          "internalType": "address",
          "name": "_delegate",
          "type": "address"
        }
      ],
      "name": "initialize",
      "outputs": [],
      "stateMutability": "nonpayable",
      "type": "function"
    },
    {
      "inputs": [
        {
          "internalType": "bytes32",
          "name": "account",
          "type": "bytes32"
        }
      ],
      "name": "isBlocked",
      "outputs": [
        {
          "internalType": "bool",
          "name": "",
          "type": "bool"
        }
      ],
      "stateMutability": "view",
      "type": "function"
    },
    {
      "inputs": [
        {
          "internalType": "address",
          "name": "account",
          "type": "address"
        }
      ],
      "name": "isBlocked",
      "outputs": [
        {
          "internalType": "bool",
          "name": "",
          "type": "bool"
        }
      ],
      "stateMutability": "view",
      "type": "function"
    },
    {
      "inputs": [
        {
          "components": [
            {
              "internalType": "uint32",
              "name": "srcEid",
              "type": "uint32"
            },
            {
              "internalType": "bytes32",
              "name": "sender",
              "type": "bytes32"
            },
            {
              "internalType": "uint64",
              "name": "nonce",
              "type": "uint64"
            }
          ],
          "internalType": "struct Origin",
          "name": "",
          "type": "tuple"
        },
        {
          "internalType": "bytes",
          "name": "",
          "type": "bytes"
        },
        {
          "internalType": "address",
          "name": "_sender",
          "type": "address"
        }
      ],
      "name": "isComposeMsgSender",
      "outputs": [
        {
          "internalType": "bool",
          "name": "",
          "type": "bool"
        }
      ],
      "stateMutability": "view",
      "type": "function"
    },
    {
      "inputs": [
        {
          "internalType": "uint32",
          "name": "_eid",
          "type": "uint32"
        },
        {
          "internalType": "bytes32",
          "name": "_peer",
          "type": "bytes32"
        }
      ],
      "name": "isPeer",
      "outputs": [
        {
          "internalType": "bool",
          "name": "",
          "type": "bool"
        }
      ],
      "stateMutability": "view",
      "type": "function"
    },
    {
      "inputs": [
        {
          "components": [
            {
              "internalType": "uint32",
              "name": "srcEid",
              "type": "uint32"
            },
            {
              "internalType": "bytes32",
              "name": "sender",
              "type": "bytes32"
            },
            {
              "internalType": "uint64",
              "name": "nonce",
              "type": "uint64"
            }
          ],
          "internalType": "struct Origin",
          "name": "_origin",
          "type": "tuple"
        },
        {
          "internalType": "bytes32",
          "name": "_guid",
          "type": "bytes32"
        },
        {
          "internalType": "bytes",
          "name": "_message",
          "type": "bytes"
        },
        {
          "internalType": "address",
          "name": "_executor",
          "type": "address"
        },
        {
          "internalType": "bytes",
          "name": "_extraData",
          "type": "bytes"
        }
      ],
      "name": "lzReceive",
      "outputs": [],
      "stateMutability": "payable",
      "type": "function"
    },
    {
      "inputs": [
        {
          "components": [
            {
              "components": [
                {
                  "internalType": "uint32",
                  "name": "srcEid",
                  "type": "uint32"
                },
                {
                  "internalType": "bytes32",
                  "name": "sender",
                  "type": "bytes32"
                },
                {
                  "internalType": "uint64",
                  "name": "nonce",
                  "type": "uint64"
                }
              ],
              "internalType": "struct Origin",
              "name": "origin",
              "type": "tuple"
            },
            {
              "internalType": "uint32",
              "name": "dstEid",
              "type": "uint32"
            },
            {
              "internalType": "address",
              "name": "receiver",
              "type": "address"
            },
            {
              "internalType": "bytes32",
              "name": "guid",
              "type": "bytes32"
            },
            {
              "internalType": "uint256",
              "name": "value",
              "type": "uint256"
            },
            {
              "internalType": "address",
              "name": "executor",
              "type": "address"
            },
            {
              "internalType": "bytes",
              "name": "message",
              "type": "bytes"
            },
            {
              "internalType": "bytes",
              "name": "extraData",
              "type": "bytes"
            }
          ],
          "internalType": "struct InboundPacket[]",
          "name": "_packets",
          "type": "tuple[]"
        }
      ],
      "name": "lzReceiveAndRevert",
      "outputs": [],
      "stateMutability": "payable",
      "type": "function"
    },
    {
      "inputs": [
        {
          "components": [
            {
              "internalType": "uint32",
              "name": "srcEid",
              "type": "uint32"
            },
            {
              "internalType": "bytes32",
              "name": "sender",
              "type": "bytes32"
            },
            {
              "internalType": "uint64",
              "name": "nonce",
              "type": "uint64"
            }
          ],
          "internalType": "struct Origin",
          "name": "_origin",
          "type": "tuple"
        },
        {
          "internalType": "bytes32",
          "name": "_guid",
          "type": "bytes32"
        },
        {
          "internalType": "bytes",
          "name": "_message",
          "type": "bytes"
        },
        {
          "internalType": "address",
          "name": "_executor",
          "type": "address"
        },
        {
          "internalType": "bytes",
          "name": "_extraData",
          "type": "bytes"
        }
      ],
      "name": "lzReceiveSimulate",
      "outputs": [],
      "stateMutability": "payable",
      "type": "function"
    },
    {
      "inputs": [
        {
          "internalType": "address",
          "name": "to",
          "type": "address"
        },
        {
          "internalType": "uint256",
          "name": "amount",
          "type": "uint256"
        }
      ],
      "name": "mint",
      "outputs": [],
      "stateMutability": "nonpayable",
      "type": "function"
    },
    {
      "inputs": [],
      "name": "msgInspector",
      "outputs": [
        {
          "internalType": "address",
          "name": "",
          "type": "address"
        }
      ],
      "stateMutability": "view",
      "type": "function"
    },
    {
      "inputs": [],
      "name": "name",
      "outputs": [
        {
          "internalType": "string",
          "name": "",
          "type": "string"
        }
      ],
      "stateMutability": "view",
      "type": "function"
    },
    {
      "inputs": [
        {
          "internalType": "uint32",
          "name": "",
          "type": "uint32"
        },
        {
          "internalType": "bytes32",
          "name": "",
          "type": "bytes32"
        }
      ],
      "name": "nextNonce",
      "outputs": [
        {
          "internalType": "uint64",
          "name": "nonce",
          "type": "uint64"
        }
      ],
      "stateMutability": "view",
      "type": "function"
    },
    {
      "inputs": [],
      "name": "oApp",
      "outputs": [
        {
          "internalType": "address",
          "name": "",
          "type": "address"
        }
      ],
      "stateMutability": "view",
      "type": "function"
    },
    {
      "inputs": [],
      "name": "oAppVersion",
      "outputs": [
        {
          "internalType": "uint64",
          "name": "senderVersion",
          "type": "uint64"
        },
        {
          "internalType": "uint64",
          "name": "receiverVersion",
          "type": "uint64"
        }
      ],
      "stateMutability": "pure",
      "type": "function"
    },
    {
      "inputs": [],
      "name": "oftVersion",
      "outputs": [
        {
          "internalType": "bytes4",
          "name": "interfaceId",
          "type": "bytes4"
        },
        {
          "internalType": "uint64",
          "name": "version",
          "type": "uint64"
        }
      ],
      "stateMutability": "pure",
      "type": "function"
    },
    {
      "inputs": [],
      "name": "owner",
      "outputs": [
        {
          "internalType": "address",
          "name": "",
          "type": "address"
        }
      ],
      "stateMutability": "view",
      "type": "function"
    },
    {
      "inputs": [
        {
          "internalType": "uint32",
          "name": "_eid",
          "type": "uint32"
        }
      ],
      "name": "peers",
      "outputs": [
        {
          "internalType": "bytes32",
          "name": "",
          "type": "bytes32"
        }
      ],
      "stateMutability": "view",
      "type": "function"
    },
    {
      "inputs": [],
      "name": "preCrime",
      "outputs": [
        {
          "internalType": "address",
          "name": "",
          "type": "address"
        }
      ],
      "stateMutability": "view",
      "type": "function"
    },
    {
      "inputs": [
        {
          "components": [
            {
              "internalType": "uint32",
              "name": "dstEid",
              "type": "uint32"
            },
            {
              "internalType": "bytes32",
              "name": "to",
              "type": "bytes32"
            },
            {
              "internalType": "uint256",
              "name": "amountLD",
              "type": "uint256"
            },
            {
              "internalType": "uint256",
              "name": "minAmountLD",
              "type": "uint256"
            },
            {
              "internalType": "bytes",
              "name": "extraOptions",
              "type": "bytes"
            },
            {
              "internalType": "bytes",
              "name": "composeMsg",
              "type": "bytes"
            },
            {
              "internalType": "bytes",
              "name": "oftCmd",
              "type": "bytes"
            }
          ],
          "internalType": "struct SendParam",
          "name": "_sendParam",
          "type": "tuple"
        }
      ],
      "name": "quoteOFT",
      "outputs": [
        {
          "components": [
            {
              "internalType": "uint256",
              "name": "minAmountLD",
              "type": "uint256"
            },
            {
              "internalType": "uint256",
              "name": "maxAmountLD",
              "type": "uint256"
            }
          ],
          "internalType": "struct OFTLimit",
          "name": "oftLimit",
          "type": "tuple"
        },
        {
          "components": [
            {
              "internalType": "int256",
              "name": "feeAmountLD",
              "type": "int256"
            },
            {
              "internalType": "string",
              "name": "description",
              "type": "string"
            }
          ],
          "internalType": "struct OFTFeeDetail[]",
          "name": "oftFeeDetails",
          "type": "tuple[]"
        },
        {
          "components": [
            {
              "internalType": "uint256",
              "name": "amountSentLD",
              "type": "uint256"
            },
            {
              "internalType": "uint256",
              "name": "amountReceivedLD",
              "type": "uint256"
            }
          ],
          "internalType": "struct OFTReceipt",
          "name": "oftReceipt",
          "type": "tuple"
        }
      ],
      "stateMutability": "view",
      "type": "function"
    },
    {
      "inputs": [
        {
          "components": [
            {
              "internalType": "uint32",
              "name": "dstEid",
              "type": "uint32"
            },
            {
              "internalType": "bytes32",
              "name": "to",
              "type": "bytes32"
            },
            {
              "internalType": "uint256",
              "name": "amountLD",
              "type": "uint256"
            },
            {
              "internalType": "uint256",
              "name": "minAmountLD",
              "type": "uint256"
            },
            {
              "internalType": "bytes",
              "name": "extraOptions",
              "type": "bytes"
            },
            {
              "internalType": "bytes",
              "name": "composeMsg",
              "type": "bytes"
            },
            {
              "internalType": "bytes",
              "name": "oftCmd",
              "type": "bytes"
            }
          ],
          "internalType": "struct SendParam",
          "name": "_sendParam",
          "type": "tuple"
        },
        {
          "internalType": "bool",
          "name": "_payInLzToken",
          "type": "bool"
        }
      ],
      "name": "quoteSend",
      "outputs": [
        {
          "components": [
            {
              "internalType": "uint256",
              "name": "nativeFee",
              "type": "uint256"
            },
            {
              "internalType": "uint256",
              "name": "lzTokenFee",
              "type": "uint256"
            }
          ],
          "internalType": "struct MessagingFee",
          "name": "msgFee",
          "type": "tuple"
        }
      ],
      "stateMutability": "view",
      "type": "function"
    },
    {
      "inputs": [
        {
          "internalType": "address",
          "name": "account",
          "type": "address"
        }
      ],
      "name": "removeFromBlocklist",
      "outputs": [],
      "stateMutability": "nonpayable",
      "type": "function"
    },
    {
      "inputs": [
        {
          "internalType": "bytes32",
          "name": "account",
          "type": "bytes32"
        }
      ],
      "name": "removeFromBlocklist",
      "outputs": [],
      "stateMutability": "nonpayable",
      "type": "function"
    },
    {
      "inputs": [],
      "name": "renounceOwnership",
      "outputs": [],
      "stateMutability": "nonpayable",
      "type": "function"
    },
    {
      "inputs": [
        {
          "components": [
            {
              "internalType": "uint32",
              "name": "dstEid",
              "type": "uint32"
            },
            {
              "internalType": "bytes32",
              "name": "to",
              "type": "bytes32"
            },
            {
              "internalType": "uint256",
              "name": "amountLD",
              "type": "uint256"
            },
            {
              "internalType": "uint256",
              "name": "minAmountLD",
              "type": "uint256"
            },
            {
              "internalType": "bytes",
              "name": "extraOptions",
              "type": "bytes"
            },
            {
              "internalType": "bytes",
              "name": "composeMsg",
              "type": "bytes"
            },
            {
              "internalType": "bytes",
              "name": "oftCmd",
              "type": "bytes"
            }
          ],
          "internalType": "struct SendParam",
          "name": "_sendParam",
          "type": "tuple"
        },
        {
          "components": [
            {
              "internalType": "uint256",
              "name": "nativeFee",
              "type": "uint256"
            },
            {
              "internalType": "uint256",
              "name": "lzTokenFee",
              "type": "uint256"
            }
          ],
          "internalType": "struct MessagingFee",
          "name": "_fee",
          "type": "tuple"
        },
        {
          "internalType": "address",
          "name": "_refundAddress",
          "type": "address"
        }
      ],
      "name": "send",
      "outputs": [
        {
          "components": [
            {
              "internalType": "bytes32",
              "name": "guid",
              "type": "bytes32"
            },
            {
              "internalType": "uint64",
              "name": "nonce",
              "type": "uint64"
            },
            {
              "components": [
                {
                  "internalType": "uint256",
                  "name": "nativeFee",
                  "type": "uint256"
                },
                {
                  "internalType": "uint256",
                  "name": "lzTokenFee",
                  "type": "uint256"
                }
              ],
              "internalType": "struct MessagingFee",
              "name": "fee",
              "type": "tuple"
            }
          ],
          "internalType": "struct MessagingReceipt",
          "name": "msgReceipt",
          "type": "tuple"
        },
        {
          "components": [
            {
              "internalType": "uint256",
              "name": "amountSentLD",
              "type": "uint256"
            },
            {
              "internalType": "uint256",
              "name": "amountReceivedLD",
              "type": "uint256"
            }
          ],
          "internalType": "struct OFTReceipt",
          "name": "oftReceipt",
          "type": "tuple"
        }
      ],
      "stateMutability": "payable",
      "type": "function"
    },
    {
      "inputs": [
        {
          "internalType": "address",
          "name": "_delegate",
          "type": "address"
        }
      ],
      "name": "setDelegate",
      "outputs": [],
      "stateMutability": "nonpayable",
      "type": "function"
    },
    {
      "inputs": [
        {
          "components": [
            {
              "internalType": "uint32",
              "name": "eid",
              "type": "uint32"
            },
            {
              "internalType": "uint16",
              "name": "msgType",
              "type": "uint16"
            },
            {
              "internalType": "bytes",
              "name": "options",
              "type": "bytes"
            }
          ],
          "internalType": "struct EnforcedOptionParam[]",
          "name": "_enforcedOptions",
          "type": "tuple[]"
        }
      ],
      "name": "setEnforcedOptions",
      "outputs": [],
      "stateMutability": "nonpayable",
      "type": "function"
    },
    {
      "inputs": [
        {
          "internalType": "address",
          "name": "_msgInspector",
          "type": "address"
        }
      ],
      "name": "setMsgInspector",
      "outputs": [],
      "stateMutability": "nonpayable",
      "type": "function"
    },
    {
      "inputs": [
        {
          "internalType": "uint32",
          "name": "_eid",
          "type": "uint32"
        },
        {
          "internalType": "bytes32",
          "name": "_peer",
          "type": "bytes32"
        }
      ],
      "name": "setPeer",
      "outputs": [],
      "stateMutability": "nonpayable",
      "type": "function"
    },
    {
      "inputs": [
        {
          "internalType": "address",
          "name": "_preCrime",
          "type": "address"
        }
      ],
      "name": "setPreCrime",
      "outputs": [],
      "stateMutability": "nonpayable",
      "type": "function"
    },
    {
      "inputs": [],
      "name": "sharedDecimals",
      "outputs": [
        {
          "internalType": "uint8",
          "name": "",
          "type": "uint8"
        }
      ],
      "stateMutability": "pure",
      "type": "function"
    },
    {
      "inputs": [],
      "name": "symbol",
      "outputs": [
        {
          "internalType": "string",
          "name": "",
          "type": "string"
        }
      ],
      "stateMutability": "view",
      "type": "function"
    },
    {
      "inputs": [],
      "name": "token",
      "outputs": [
        {
          "internalType": "address",
          "name": "",
          "type": "address"
        }
      ],
      "stateMutability": "view",
      "type": "function"
    },
    {
      "inputs": [],
      "name": "totalSupply",
      "outputs": [
        {
          "internalType": "uint256",
          "name": "",
          "type": "uint256"
        }
      ],
      "stateMutability": "view",
      "type": "function"
    },
    {
      "inputs": [
        {
          "internalType": "address",
          "name": "to",
          "type": "address"
        },
        {
          "internalType": "uint256",
          "name": "value",
          "type": "uint256"
        }
      ],
      "name": "transfer",
      "outputs": [
        {
          "internalType": "bool",
          "name": "",
          "type": "bool"
        }
      ],
      "stateMutability": "nonpayable",
      "type": "function"
    },
    {
      "inputs": [
        {
          "internalType": "address",
          "name": "from",
          "type": "address"
        },
        {
          "internalType": "address",
          "name": "to",
          "type": "address"
        },
        {
          "internalType": "uint256",
          "name": "value",
          "type": "uint256"
        }
      ],
      "name": "transferFrom",
      "outputs": [
        {
          "internalType": "bool",
          "name": "",
          "type": "bool"
        }
      ],
      "stateMutability": "nonpayable",
      "type": "function"
    },
    {
      "inputs": [
        {
          "internalType": "address",
          "name": "newOwner",
          "type": "address"
        }
      ],
      "name": "transferOwnership",
      "outputs": [],
      "stateMutability": "nonpayable",
      "type": "function"
    }
  ],
  "transactionHash": "0x68e86fb13a0ed8be689458e45f34c4bc9baa32c2f4068c7aa71481a02476968d",
  "args": [
    "0x1a44076050125825900e736c501f859c50fE728c"
  ],
  "numDeployments": 1,
  "solcInputHash": "4c20c21df07c07080a8c3379614b5e33",
  "bytecode": "0x60c06040523480156200001157600080fd5b5060405162003d3d38038062003d3d833981016040819052620000349162000144565b6001600160a01b03811660805280600381620000526003836200018c565b6200005f90600a620002a5565b60a052506200007091505062000077565b50620002b6565b60006200008362000119565b805490915068010000000000000000900460ff1615620000b65760405163f92ee8a960e01b815260040160405180910390fd5b80546001600160401b0390811614620001165780546001600160401b0319166001600160401b0390811782556040519081527fc7f505b2f371ae2175ee4913f4499e1f2633a7b5936321eed1cdaeb6115181d29060200160405180910390a15b50565b6000807ff0c57e16840df040f15088dc2f81fe391c3923bec73e23a9662efc9c229c6a005b92915050565b6000602082840312156200015757600080fd5b81516001600160a01b03811681146200016f57600080fd5b9392505050565b634e487b7160e01b600052601160045260246000fd5b60ff82811682821603908111156200013e576200013e62000176565b600181815b80851115620001e9578160001904821115620001cd57620001cd62000176565b80851615620001db57918102915b93841c9390800290620001ad565b509250929050565b60008262000202575060016200013e565b8162000211575060006200013e565b81600181146200022a5760028114620002355762000255565b60019150506200013e565b60ff84111562000249576200024962000176565b50506001821b6200013e565b5060208310610133831016604e8410600b84101617156200027a575081810a6200013e565b620002868383620001a8565b80600019048211156200029d576200029d62000176565b029392505050565b60006200016f60ff841683620001f1565b60805160a051613a1b620003226000396000818161075e015281816122ef01528181612364015261247b01526000818161060601528181610d010152818161180101528181611b6401528181611e89015281816120cc0152818161254601526125ff0152613a1b6000f3fe6080604052600436106102ff5760003560e01c806382c947b711610190578063bc70b354116100dc578063d424388511610095578063f2fde38b1161006f578063f2fde38b146109ad578063fbac3951146109cd578063fc0c546a1461055d578063ff7bd03d146109ed57600080fd5b8063d424388514610930578063dd62ed3e14610950578063e3de58971461097057600080fd5b8063bc70b35414610889578063bd815db0146108a9578063c7c7f5b3146108bc578063c83fae91146108dd578063ca5eb5e1146108fd578063d045a0dc1461091d57600080fd5b80639dc29fac11610149578063a9059cbb11610123578063a9059cbb146107f4578063b731ea0a14610814578063b98bd07014610829578063bb0b6a531461084957600080fd5b80639dc29fac146107a05780639edcb55b146107c05780639f68b964146107e057600080fd5b806382c947b7146106fb578063857749b0146104d45780638da5cb5b1461072257806395d89b4114610737578063963efcaa1461074c578063982b5f951461078057600080fd5b80633400288b1161024f5780635a0dfe4d1161020857806370a08231116101e257806370a0823114610648578063715018a61461068b5780637d25a05e146106a057806382413eac146106db57600080fd5b80635a0dfe4d146105b05780635e280f11146105f45780636fc1b31e1461062857600080fd5b80633400288b146104f05780633b6f743b1461051057806340c10f191461053d57806352ae28791461055d5780635535d46114610570578063592ca8501461059057600080fd5b8063134d4f25116102bc57806318160ddd1161029657806318160ddd146104615780631f5e13341461049f57806323b872dd146104b4578063313ce567146104d457600080fd5b8063134d4f25146103f0578063156a0d0f1461041857806317442b701461043f57600080fd5b806306fdde0314610304578063077f224a1461032f578063095ea7b3146103515780630d35b41514610381578063111ecdad146103b057806313137d65146103dd575b600080fd5b34801561031057600080fd5b50610319610a0d565b6040516103269190612980565b60405180910390f35b34801561033b57600080fd5b5061034f61034a366004612a93565b610ad0565b005b34801561035d57600080fd5b5061037161036c366004612b0a565b610bdf565b6040519015158152602001610326565b34801561038d57600080fd5b506103a161039c366004612b4e565b610bf9565b60405161032693929190612b82565b3480156103bc57600080fd5b506103c5610cca565b6040516001600160a01b039091168152602001610326565b61034f6103eb366004612c75565b610cff565b3480156103fc57600080fd5b50610405600281565b60405161ffff9091168152602001610326565b34801561042457600080fd5b506040805162b9270b60e21b81526001602082015201610326565b34801561044b57600080fd5b5060408051600181526002602082015201610326565b34801561046d57600080fd5b507f52c63247e1f47db19d5ce0460030c497f067ca4cebf71ba98eeadabe20bace02545b604051908152602001610326565b3480156104ab57600080fd5b50610405600181565b3480156104c057600080fd5b506103716104cf366004612d14565b610dbf565b3480156104e057600080fd5b5060405160038152602001610326565b3480156104fc57600080fd5b5061034f61050b366004612d6e565b610de5565b34801561051c57600080fd5b5061053061052b366004612d98565b610e52565b6040516103269190612de9565b34801561054957600080fd5b5061034f610558366004612b0a565b610eb9565b34801561056957600080fd5b50306103c5565b34801561057c57600080fd5b5061031961058b366004612e12565b610ecf565b34801561059c57600080fd5b5061034f6105ab366004612e45565b610faa565b3480156105bc57600080fd5b506103716105cb366004612d6e565b63ffffffff9190911660009081526000805160206139a683398151915260205260409020541490565b34801561060057600080fd5b506103c57f000000000000000000000000000000000000000000000000000000000000000081565b34801561063457600080fd5b5061034f610643366004612e45565b610fc7565b34801561065457600080fd5b50610491610663366004612e45565b6001600160a01b03166000908152600080516020613986833981519152602052604090205490565b34801561069757600080fd5b5061034f611043565b3480156106ac57600080fd5b506106c36106bb366004612d6e565b600092915050565b6040516001600160401b039091168152602001610326565b3480156106e757600080fd5b506103716106f6366004612e62565b611057565b34801561070757600080fd5b50610491610716366004612e45565b6001600160a01b031690565b34801561072e57600080fd5b506103c561106c565b34801561074357600080fd5b50610319611095565b34801561075857600080fd5b506104917f000000000000000000000000000000000000000000000000000000000000000081565b34801561078c57600080fd5b5061034f61079b366004612ec8565b6110d4565b3480156107ac57600080fd5b5061034f6107bb366004612b0a565b611137565b3480156107cc57600080fd5b5061034f6107db366004612ec8565b611149565b3480156107ec57600080fd5b506000610371565b34801561080057600080fd5b5061037161080f366004612b0a565b611192565b34801561082057600080fd5b506103c56111a0565b34801561083557600080fd5b5061034f610844366004612f25565b6111c9565b34801561085557600080fd5b50610491610864366004612f66565b63ffffffff1660009081526000805160206139a6833981519152602052604090205490565b34801561089557600080fd5b506103196108a4366004612f81565b61134a565b61034f6108b7366004612f25565b6114e0565b6108cf6108ca366004612fe1565b611677565b604051610326929190613043565b3480156108e957600080fd5b5061034f6108f8366004612e45565b6117c0565b34801561090957600080fd5b5061034f610918366004612e45565b6117da565b61034f61092b366004612c75565b611860565b34801561093c57600080fd5b5061034f61094b366004612e45565b61188f565b34801561095c57600080fd5b5061049161096b366004613095565b611903565b34801561097c57600080fd5b5061037161098b366004612ec8565b60009081526000805160206139c6833981519152602052604090205460ff1690565b3480156109b957600080fd5b5061034f6109c8366004612e45565b61194d565b3480156109d957600080fd5b506103716109e8366004612e45565b611988565b3480156109f957600080fd5b50610371610a083660046130c3565b6119b3565b7f52c63247e1f47db19d5ce0460030c497f067ca4cebf71ba98eeadabe20bace03805460609160008051602061398683398151915291610a4c906130df565b80601f0160208091040260200160405190810160405280929190818152602001828054610a78906130df565b8015610ac55780601f10610a9a57610100808354040283529160200191610ac5565b820191906000526020600020905b815481529060010190602001808311610aa857829003601f168201915b505050505091505090565b6000610ada6119d1565b805490915060ff600160401b82041615906001600160401b0316600081158015610b015750825b90506000826001600160401b03166001148015610b1d5750303b155b905081158015610b2b575080155b15610b495760405163f92ee8a960e01b815260040160405180910390fd5b845467ffffffffffffffff191660011785558315610b7357845460ff60401b1916600160401b1785555b610b7e8888886119fa565b610b86611a1a565b610b8f86611a22565b8315610bd557845460ff60401b19168555604051600181527fc7f505b2f371ae2175ee4913f4499e1f2633a7b5936321eed1cdaeb6115181d29060200160405180910390a15b5050505050505050565b600033610bed818585611a33565b60019150505b92915050565b60408051808201909152600080825260208201526060610c2c604051806040016040528060008152602001600081525090565b60408051808201825260008082526001600160401b03602080840182905284518381529081019094529195509182610c87565b604080518082019091526000815260606020820152815260200190600190039081610c5f5790505b509350600080610cac604089013560608a0135610ca760208c018c612f66565b611a40565b60408051808201909152918252602082015296989597505050505050565b6000807f41db8a78b0206aba5c54bcbfc2bda0d84082a84eb88e680379a57b9e9f653c005b546001600160a01b031692915050565b7f00000000000000000000000000000000000000000000000000000000000000006001600160a01b03163314610d4f576040516391ac5e4f60e01b81523360048201526024015b60405180910390fd5b60208701803590610d6990610d64908a612f66565b611a84565b14610da757610d7b6020880188612f66565b60405163309afaf360e21b815263ffffffff909116600482015260208801356024820152604401610d46565b610db687878787878787611acf565b50505050505050565b600033610dcd858285611c36565b610dd8858585611c9d565b60019150505b9392505050565b610ded611cfc565b63ffffffff821660008181526000805160206139a6833981519152602081815260409283902085905582519384528301849052917f238399d427b947898edb290f5ff0f9109849b1c3ba196a42e35f00c50a54b98b91015b60405180910390a1505050565b60408051808201909152600080825260208201526000610e8260408501356060860135610ca76020880188612f66565b915050600080610e928684611d2e565b9092509050610eaf610ea76020880188612f66565b838388611e73565b9695505050505050565b610ec1611cfc565b610ecb8282611f54565b5050565b63ffffffff821660009081527f8d2bda5d9f6ffb5796910376005392955773acee5548d0fcdb10e7c264ea00006020818152604080842061ffff8616855290915290912080546060929190610f23906130df565b80601f0160208091040260200160405190810160405280929190818152602001828054610f4f906130df565b8015610f9c5780601f10610f7157610100808354040283529160200191610f9c565b820191906000526020600020905b815481529060010190602001808311610f7f57829003601f168201915b505050505091505092915050565b610fb2611cfc565b610fc46001600160a01b038216611149565b50565b610fcf611cfc565b7f41db8a78b0206aba5c54bcbfc2bda0d84082a84eb88e680379a57b9e9f653c0080546001600160a01b0319166001600160a01b03831690811782556040519081527ff0be4f1e87349231d80c36b33f9e8639658eeaf474014dee15a3e6a4d4414197906020015b60405180910390a15050565b61104b611cfc565b6110556000611f8a565b565b6001600160a01b03811630145b949350505050565b6000807f9016d09d72d40fdae2fd8ceac6b6234c7706214fd39c1cd1e609a0528c199300610cef565b7f52c63247e1f47db19d5ce0460030c497f067ca4cebf71ba98eeadabe20bace04805460609160008051602061398683398151915291610a4c906130df565b6110dc611cfc565b60405181907fca2be510421534255b6571b2c2561c2687322ea090a5056b1b21205802e0e41190600090a260016000805160206139c68339815191525b60009283526020526040909120805460ff1916911515919091179055565b61113f611cfc565b610ecb8282611ffb565b611151611cfc565b60405181907f359b52670c41a82689da4c0006e64b4d62e6911e842f82e5a0728bcaf86b5efc90600090a260006000805160206139c6833981519152611119565b600033610bed818585611c9d565b6000807fefb041d771d6daaa55702fff6eb740d63ba559a75d2d1d3e151c78ff2480b600610cef565b6111d1611cfc565b7f8d2bda5d9f6ffb5796910376005392955773acee5548d0fcdb10e7c264ea000060005b828110156113185761123784848381811061121257611212613113565b90506020028101906112249190613129565b611232906040810190613149565b612031565b83838281811061124957611249613113565b905060200281019061125b9190613129565b611269906040810190613149565b83600087878681811061127e5761127e613113565b90506020028101906112909190613129565b61129e906020810190612f66565b63ffffffff1663ffffffff16815260200190815260200160002060008787868181106112cc576112cc613113565b90506020028101906112de9190613129565b6112ef90604081019060200161318f565b61ffff16815260208101919091526040016000209161130f9190836131fa565b506001016111f5565b507fbe4864a8e820971c0247f5992e2da559595f7bf076a21cb5928d443d2a13b6748383604051610e459291906132e2565b63ffffffff841660009081527f8d2bda5d9f6ffb5796910376005392955773acee5548d0fcdb10e7c264ea00006020818152604080842061ffff8816855290915282208054606093919061139d906130df565b80601f01602080910402602001604051908101604052809291908181526020018280546113c9906130df565b80156114165780601f106113eb57610100808354040283529160200191611416565b820191906000526020600020905b8154815290600101906020018083116113f957829003601f168201915b5050505050905080516000036114675784848080601f016020809104026020016040519081016040528093929190818152602001838380828437600092019190915250929550611064945050505050565b60008490036114795791506110649050565b600284106114c35761148b8585612031565b8061149985600281896133c6565b6040516020016114ab939291906133f0565b60405160208183030381529060405292505050611064565b8484604051639a6d49cd60e01b8152600401610d46929190613418565b60005b818110156115f657368383838181106114fe576114fe613113565b9050602002810190611510919061342c565b90506115506115226020830183612f66565b602083013563ffffffff9190911660009081526000805160206139a683398151915260205260409020541490565b61155a57506115ee565b3063d045a0dc60c08301358360a0810135611579610100830183613149565b61158a610100890160e08a01612e45565b6115986101208a018a613149565b6040518963ffffffff1660e01b81526004016115ba9796959493929190613458565b6000604051808303818588803b1580156115d357600080fd5b505af11580156115e7573d6000803e3d6000fd5b5050505050505b6001016114e3565b50336001600160a01b0316638e9e70996040518163ffffffff1660e01b8152600401600060405180830381865afa158015611635573d6000803e3d6000fd5b505050506040513d6000823e601f3d908101601f1916820160405261165d91908101906134de565b604051638351eea760e01b8152600401610d469190612980565b61167f6128e9565b60408051808201909152600080825260208201526116bd856020013560009081526000805160206139c6833981519152602052604090205460ff1690565b156116e157604051632fb9dd6d60e21b815260208601356004820152602401610d46565b60008061170433604089013560608a01356116ff60208c018c612f66565b612073565b915091506000806117158984611d2e565b909250905061174161172a60208b018b612f66565b838361173b368d90038d018d61354b565b8b612099565b60408051808201909152858152602080820186905282519298509096503391907f85496b760a4b7f8d66384b9df21b381f5d1b1e79f229a47aaf4c232edc2fe59a9061178f908d018d612f66565b6040805163ffffffff909216825260208201899052810187905260600160405180910390a350505050935093915050565b6117c8611cfc565b610fc46001600160a01b0382166110d4565b6117e2611cfc565b60405163ca5eb5e160e01b81526001600160a01b0382811660048301527f0000000000000000000000000000000000000000000000000000000000000000169063ca5eb5e190602401600060405180830381600087803b15801561184557600080fd5b505af1158015611859573d6000803e3d6000fd5b5050505050565b3330146118805760405163029a949d60e31b815260040160405180910390fd5b610db687878787878787610da7565b611897611cfc565b7fefb041d771d6daaa55702fff6eb740d63ba559a75d2d1d3e151c78ff2480b60080546001600160a01b0319166001600160a01b03831690811782556040519081527fd48d879cef83a1c0bdda516f27b13ddb1b3f8bbac1c9e1511bb2a659c242776090602001611037565b6001600160a01b0391821660009081527f52c63247e1f47db19d5ce0460030c497f067ca4cebf71ba98eeadabe20bace016020908152604080832093909416825291909152205490565b611955611cfc565b6001600160a01b03811661197f57604051631e4fbdf760e01b815260006004820152602401610d46565b610fc481611f8a565b6001600160a01b031660009081526000805160206139c6833981519152602052604090205460ff1690565b6000602082018035906119ca906108649085612f66565b1492915050565b6000807ff0c57e16840df040f15088dc2f81fe391c3923bec73e23a9662efc9c229c6a00610bf3565b611a026121a4565b611a0c83836121c9565b611a15816121db565b505050565b6110556121a4565b611a2a6121a4565b610fc4816121fc565b611a158383836001612204565b600080611a4c856122eb565b915081905083811015611a7c576040516371c4efed60e01b81526004810182905260248101859052604401610d46565b935093915050565b63ffffffff811660009081526000805160206139a68339815191526020819052604082205480610dde5760405163f6ff4fb760e01b815263ffffffff85166004820152602401610d46565b6000611ae1611ade8787612322565b90565b90506000611b0d82611afb611af68a8a61233a565b61235d565b611b0860208d018d612f66565b612392565b90506028861115611bd4576000611b4a611b2d60608c0160408d0161357d565b611b3a60208d018d612f66565b84611b458c8c6123ba565b612405565b604051633e5ac80960e11b81529091506001600160a01b037f00000000000000000000000000000000000000000000000000000000000000001690637cb5901290611ba09086908d90600090879060040161359a565b600060405180830381600087803b158015611bba57600080fd5b505af1158015611bce573d6000803e3d6000fd5b50505050505b6001600160a01b038216887fefed6d3500546b29533b128a29e3a94d70788727f0507505ac12eaf2e578fd9c611c0d60208d018d612f66565b6040805163ffffffff9092168252602082018690520160405180910390a3505050505050505050565b6000611c428484611903565b9050600019811015611c975781811015611c8857604051637dc7a0d960e11b81526001600160a01b03841660048201526024810182905260448101839052606401610d46565b611c9784848484036000612204565b50505050565b6001600160a01b038316611cc757604051634b637e8f60e11b815260006004820152602401610d46565b6001600160a01b038216611cf15760405163ec442f0560e01b815260006004820152602401610d46565b611a15838383612437565b33611d0561106c565b6001600160a01b0316146110555760405163118cdaa760e01b8152336004820152602401610d46565b6060806000611d8b8560200135611d4486612474565b611d5160a0890189613149565b8080601f0160208091040260200160405190810160405280939291908181526020018383808284376000920191909152506124a092505050565b9093509050600081611d9e576001611da1565b60025b9050611dc1611db36020880188612f66565b826108a460808a018a613149565b7f41db8a78b0206aba5c54bcbfc2bda0d84082a84eb88e680379a57b9e9f653c008054919450906001600160a01b03168015611e685760405163043a78eb60e01b81526001600160a01b0382169063043a78eb90611e2590899089906004016135cb565b602060405180830381865afa158015611e42573d6000803e3d6000fd5b505050506040513d601f19601f82011682018060405250810190611e6691906135f0565b505b505050509250929050565b60408051808201909152600080825260208201527f00000000000000000000000000000000000000000000000000000000000000006001600160a01b031663ddc28c586040518060a001604052808863ffffffff168152602001611ed689611a84565b8152602001878152602001868152602001851515815250306040518363ffffffff1660e01b8152600401611f0b92919061360d565b6040805180830381865afa158015611f27573d6000803e3d6000fd5b505050506040513d601f19601f82011682018060405250810190611f4b91906136b6565b95945050505050565b6001600160a01b038216611f7e5760405163ec442f0560e01b815260006004820152602401610d46565b610ecb60008383612437565b7f9016d09d72d40fdae2fd8ceac6b6234c7706214fd39c1cd1e609a0528c19930080546001600160a01b031981166001600160a01b03848116918217845560405192169182907f8be0079c531659141344cd1fd0a4f28419497f9722a3daafe3b4186f6b6457e090600090a3505050565b6001600160a01b03821661202557604051634b637e8f60e11b815260006004820152602401610d46565b610ecb82600083612437565b600061204060028284866133c6565b612049916136d2565b60f01c905060038114611a15578282604051639a6d49cd60e01b8152600401610d46929190613418565b600080612081858585611a40565b90925090506120908683611ffb565b94509492505050565b6120a16128e9565b60006120b0846000015161251a565b6020850151909150156120ca576120ca8460200151612542565b7f00000000000000000000000000000000000000000000000000000000000000006001600160a01b0316632637a450826040518060a001604052808b63ffffffff16815260200161211a8c611a84565b81526020018a815260200189815260200160008960200151111515815250866040518463ffffffff1660e01b815260040161215692919061360d565b60806040518083038185885af1158015612174573d6000803e3d6000fd5b50505050506040513d601f19601f820116820180604052508101906121999190613702565b979650505050505050565b6121ac612624565b61105557604051631afcd79f60e31b815260040160405180910390fd5b6121d16121a4565b610ecb828261263e565b6121e36121a4565b6121ec8161268f565b6121f4611a1a565b610fc4611a1a565b6119556121a4565b6000805160206139868339815191526001600160a01b03851661223d5760405163e602df0560e01b815260006004820152602401610d46565b6001600160a01b03841661226757604051634a1406b160e11b815260006004820152602401610d46565b6001600160a01b0380861660009081526001830160209081526040808320938816835292905220839055811561185957836001600160a01b0316856001600160a01b03167f8c5be1e5ebec7d5bd14f71427d1e84f3dd0314c0f7b2291e5b200ac8c7c3b925856040516122dc91815260200190565b60405180910390a35050505050565b60007f0000000000000000000000000000000000000000000000000000000000000000612318818461377f565b610bf391906137a1565b600061233160208284866133c6565b610dde916137b8565b600061234a6028602084866133c6565b612353916137d6565b60c01c9392505050565b6000610bf37f00000000000000000000000000000000000000000000000000000000000000006001600160401b0384166137a1565b60006001600160a01b0384166123a85761dead93505b6123b28484611f54565b509092915050565b60606123c982602881866133c6565b8080601f016020809104026020016040519081016040528093929190818152602001838380828437600092019190915250929695505050505050565b60608484848460405160200161241e9493929190613804565b6040516020818303038152906040529050949350505050565b61244083611988565b1561246957604051632fb9dd6d60e21b81526001600160a01b0384166004820152602401610d46565b611a158383836126a0565b6000610bf37f00000000000000000000000000000000000000000000000000000000000000008361377f565b80516060901515806124e95784846040516020016124d592919091825260c01b6001600160c01b031916602082015260280190565b604051602081830303815290604052612510565b848433856040516020016125009493929190613853565b6040516020818303038152906040525b9150935093915050565b600081341461253e576040516304fb820960e51b8152346004820152602401610d46565b5090565b60007f00000000000000000000000000000000000000000000000000000000000000006001600160a01b031663e4fe1d946040518163ffffffff1660e01b8152600401602060405180830381865afa1580156125a2573d6000803e3d6000fd5b505050506040513d601f19601f820116820180604052508101906125c69190613896565b90506001600160a01b0381166125ef576040516329b99a9560e11b815260040160405180910390fd5b610ecb6001600160a01b038216337f0000000000000000000000000000000000000000000000000000000000000000856127de565b600061262e6119d1565b54600160401b900460ff16919050565b6126466121a4565b6000805160206139868339815191527f52c63247e1f47db19d5ce0460030c497f067ca4cebf71ba98eeadabe20bace0361268084826138b3565b5060048101611c9783826138b3565b6126976121a4565b6121ec81612838565b6000805160206139868339815191526001600160a01b0384166126dc57818160020160008282546126d19190613972565b9091555061274e9050565b6001600160a01b0384166000908152602082905260409020548281101561272f5760405163391434e360e21b81526001600160a01b03861660048201526024810182905260448101849052606401610d46565b6001600160a01b03851660009081526020839052604090209083900390555b6001600160a01b03831661276c57600281018054839003905561278b565b6001600160a01b03831660009081526020829052604090208054830190555b826001600160a01b0316846001600160a01b03167fddf252ad1be2c89b69c2b068fc378daa952ba7f163c4a11628f55a4df523b3ef846040516127d091815260200190565b60405180910390a350505050565b604080516001600160a01b0385811660248301528416604482015260648082018490528251808303909101815260849091019091526020810180516001600160e01b03166323b872dd60e01b179052611c97908590612849565b6128406121a4565b610fc4816128ba565b600080602060008451602086016000885af18061286c576040513d6000823e3d81fd5b50506000513d91508115612884578060011415612891565b6001600160a01b0384163b155b15611c9757604051635274afe760e01b81526001600160a01b0385166004820152602401610d46565b6128c26121a4565b6001600160a01b0381166117e257604051632d618d8160e21b815260040160405180910390fd5b60405180606001604052806000801916815260200160006001600160401b0316815260200161292b604051806040016040528060008152602001600081525090565b905290565b60005b8381101561294b578181015183820152602001612933565b50506000910152565b6000815180845261296c816020860160208601612930565b601f01601f19169290920160200192915050565b602081526000610dde6020830184612954565b634e487b7160e01b600052604160045260246000fd5b604080519081016001600160401b03811182821017156129cb576129cb612993565b60405290565b604051601f8201601f191681016001600160401b03811182821017156129f9576129f9612993565b604052919050565b60006001600160401b03821115612a1a57612a1a612993565b50601f01601f191660200190565b600082601f830112612a3957600080fd5b8135612a4c612a4782612a01565b6129d1565b818152846020838601011115612a6157600080fd5b816020850160208301376000918101602001919091529392505050565b6001600160a01b0381168114610fc457600080fd5b600080600060608486031215612aa857600080fd5b83356001600160401b0380821115612abf57600080fd5b612acb87838801612a28565b94506020860135915080821115612ae157600080fd5b50612aee86828701612a28565b9250506040840135612aff81612a7e565b809150509250925092565b60008060408385031215612b1d57600080fd5b8235612b2881612a7e565b946020939093013593505050565b600060e08284031215612b4857600080fd5b50919050565b600060208284031215612b6057600080fd5b81356001600160401b03811115612b7657600080fd5b61106484828501612b36565b8351815260208085015190820152600060a08201604060a0604085015281865180845260c08601915060c08160051b8701019350602080890160005b83811015612bfd5788870360bf19018552815180518852830151838801879052612bea87890182612954565b9750509382019390820190600101612bbe565b50508751606088015250505060208501516080850152509050611064565b600060608284031215612b4857600080fd5b60008083601f840112612c3f57600080fd5b5081356001600160401b03811115612c5657600080fd5b602083019150836020828501011115612c6e57600080fd5b9250929050565b600080600080600080600060e0888a031215612c9057600080fd5b612c9a8989612c1b565b96506060880135955060808801356001600160401b0380821115612cbd57600080fd5b612cc98b838c01612c2d565b909750955060a08a01359150612cde82612a7e565b90935060c08901359080821115612cf457600080fd5b50612d018a828b01612c2d565b989b979a50959850939692959293505050565b600080600060608486031215612d2957600080fd5b8335612d3481612a7e565b92506020840135612d4481612a7e565b929592945050506040919091013590565b803563ffffffff81168114612d6957600080fd5b919050565b60008060408385031215612d8157600080fd5b612b2883612d55565b8015158114610fc457600080fd5b60008060408385031215612dab57600080fd5b82356001600160401b03811115612dc157600080fd5b612dcd85828601612b36565b9250506020830135612dde81612d8a565b809150509250929050565b815181526020808301519082015260408101610bf3565b803561ffff81168114612d6957600080fd5b60008060408385031215612e2557600080fd5b612e2e83612d55565b9150612e3c60208401612e00565b90509250929050565b600060208284031215612e5757600080fd5b8135610dde81612a7e565b60008060008060a08587031215612e7857600080fd5b612e828686612c1b565b935060608501356001600160401b03811115612e9d57600080fd5b612ea987828801612c2d565b9094509250506080850135612ebd81612a7e565b939692955090935050565b600060208284031215612eda57600080fd5b5035919050565b60008083601f840112612ef357600080fd5b5081356001600160401b03811115612f0a57600080fd5b6020830191508360208260051b8501011115612c6e57600080fd5b60008060208385031215612f3857600080fd5b82356001600160401b03811115612f4e57600080fd5b612f5a85828601612ee1565b90969095509350505050565b600060208284031215612f7857600080fd5b610dde82612d55565b60008060008060608587031215612f9757600080fd5b612fa085612d55565b9350612fae60208601612e00565b925060408501356001600160401b03811115612fc957600080fd5b612fd587828801612c2d565b95989497509550505050565b60008060008385036080811215612ff757600080fd5b84356001600160401b0381111561300d57600080fd5b61301987828801612b36565b9450506040601f198201121561302e57600080fd5b506020840191506060840135612aff81612a7e565b600060c082019050835182526001600160401b036020850151166020830152604084015161307e604084018280518252602090810151910152565b5082516080830152602083015160a0830152610dde565b600080604083850312156130a857600080fd5b82356130b381612a7e565b91506020830135612dde81612a7e565b6000606082840312156130d557600080fd5b610dde8383612c1b565b600181811c908216806130f357607f821691505b602082108103612b4857634e487b7160e01b600052602260045260246000fd5b634e487b7160e01b600052603260045260246000fd5b60008235605e1983360301811261313f57600080fd5b9190910192915050565b6000808335601e1984360301811261316057600080fd5b8301803591506001600160401b0382111561317a57600080fd5b602001915036819003821315612c6e57600080fd5b6000602082840312156131a157600080fd5b610dde82612e00565b601f821115611a15576000816000526020600020601f850160051c810160208610156131d35750805b601f850160051c820191505b818110156131f2578281556001016131df565b505050505050565b6001600160401b0383111561321157613211612993565b6132258361321f83546130df565b836131aa565b6000601f84116001811461325957600085156132415750838201355b600019600387901b1c1916600186901b178355611859565b600083815260209020601f19861690835b8281101561328a578685013582556020948501946001909201910161326a565b50868210156132a75760001960f88860031b161c19848701351681555b505060018560011b0183555050505050565b81835281816020850137506000828201602090810191909152601f909101601f19169091010190565b60208082528181018390526000906040808401600586901b8501820187855b888110156133b857878303603f190184528135368b9003605e1901811261332757600080fd5b8a01606063ffffffff61333983612d55565b16855261ffff61334a898401612e00565b168886015286820135601e1983360301811261336557600080fd5b9091018781019190356001600160401b0381111561338257600080fd5b80360383131561339157600080fd5b81888701526133a382870182856132b9565b96890196955050509186019150600101613301565b509098975050505050505050565b600080858511156133d657600080fd5b838611156133e357600080fd5b5050820193919092039150565b60008451613402818460208901612930565b8201838582376000930192835250909392505050565b6020815260006110646020830184866132b9565b6000823561013e1983360301811261313f57600080fd5b6001600160401b0381168114610fc457600080fd5b63ffffffff61346689612d55565b168152602088013560208201526000604089013561348381613443565b6001600160401b03811660408401525087606083015260e060808301526134ae60e0830187896132b9565b6001600160a01b03861660a084015282810360c08401526134d08185876132b9565b9a9950505050505050505050565b6000602082840312156134f057600080fd5b81516001600160401b0381111561350657600080fd5b8201601f8101841361351757600080fd5b8051613525612a4782612a01565b81815285602083850101111561353a57600080fd5b611f4b826020830160208601612930565b60006040828403121561355d57600080fd5b6135656129a9565b82358152602083013560208201528091505092915050565b60006020828403121561358f57600080fd5b8135610dde81613443565b60018060a01b038516815283602082015261ffff83166040820152608060608201526000610eaf6080830184612954565b6040815260006135de6040830185612954565b8281036020840152611f4b8185612954565b60006020828403121561360257600080fd5b8151610dde81612d8a565b6040815263ffffffff8351166040820152602083015160608201526000604084015160a0608084015261364360e0840182612954565b90506060850151603f198483030160a08501526136608282612954565b60809690960151151560c08501525050506001600160a01b039190911660209091015290565b60006040828403121561369857600080fd5b6136a06129a9565b9050815181526020820151602082015292915050565b6000604082840312156136c857600080fd5b610dde8383613686565b6001600160f01b031981358181169160028510156136fa5780818660020360031b1b83161692505b505092915050565b60006080828403121561371457600080fd5b604051606081018181106001600160401b038211171561373657613736612993565b60405282518152602083015161374b81613443565b602082015261375d8460408501613686565b60408201529392505050565b634e487b7160e01b600052601160045260246000fd5b60008261379c57634e487b7160e01b600052601260045260246000fd5b500490565b8082028115828204841417610bf357610bf3613769565b80356020831015610bf357600019602084900360031b1b1692915050565b6001600160c01b031981358181169160088510156136fa5760089490940360031b84901b1690921692915050565b6001600160401b0360c01b8560c01b16815263ffffffff60e01b8460e01b16600882015282600c8201526000825161384381602c850160208701612930565b91909101602c0195945050505050565b8481526001600160401b0360c01b8460c01b16602082015282602882015260008251613886816048850160208701612930565b9190910160480195945050505050565b6000602082840312156138a857600080fd5b8151610dde81612a7e565b81516001600160401b038111156138cc576138cc612993565b6138e0816138da84546130df565b846131aa565b602080601f83116001811461391557600084156138fd5750858301515b600019600386901b1c1916600185901b1785556131f2565b600085815260208120601f198616915b8281101561394457888601518255948401946001909101908401613925565b50858210156139625787850151600019600388901b60f8161c191681555b5050505050600190811b01905550565b80820180821115610bf357610bf361376956fe52c63247e1f47db19d5ce0460030c497f067ca4cebf71ba98eeadabe20bace0072ab1bc1039b79dc4724ffca13de82c96834302d3c7e0d4252232d4b2dd8f900d3878e6a0651ed1175c76a318a040b750e51db85dc4ff0398fe981d084922a00a26469706673582212206a2c50e6e5420e4d3672abab87a1e7fcde655300688f56a43fda0ee7b85dfc0164736f6c63430008160033",
  "devdoc": {
    "details": "This contract is a child of OFTUpgradeable and BlocklistUpgradeable.",
    "errors": {
      "ERC20InsufficientAllowance(address,uint256,uint256)": [
        {
          "details": "Indicates a failure with the `spender`s `allowance`. Used in transfers.",
          "params": {
            "allowance": "Amount of tokens a `spender` is allowed to operate with.",
            "needed": "Minimum amount required to perform a transfer.",
            "spender": "Address that may be allowed to operate on tokens without being their owner."
          }
        }
      ],
      "ERC20InsufficientBalance(address,uint256,uint256)": [
        {
          "details": "Indicates an error related to the current `balance` of a `sender`. Used in transfers.",
          "params": {
            "balance": "Current balance for the interacting account.",
            "needed": "Minimum amount required to perform a transfer.",
            "sender": "Address whose tokens are being transferred."
          }
        }
      ],
      "ERC20InvalidApprover(address)": [
        {
          "details": "Indicates a failure with the `approver` of a token to be approved. Used in approvals.",
          "params": {
            "approver": "Address initiating an approval operation."
          }
        }
      ],
      "ERC20InvalidReceiver(address)": [
        {
          "details": "Indicates a failure with the token `receiver`. Used in transfers.",
          "params": {
            "receiver": "Address to which tokens are being transferred."
          }
        }
      ],
      "ERC20InvalidSender(address)": [
        {
          "details": "Indicates a failure with the token `sender`. Used in transfers.",
          "params": {
            "sender": "Address whose tokens are being transferred."
          }
        }
      ],
      "ERC20InvalidSpender(address)": [
        {
          "details": "Indicates a failure with the `spender` to be approved. Used in approvals.",
          "params": {
            "spender": "Address that may be allowed to operate on tokens without being their owner."
          }
        }
      ],
      "InvalidInitialization()": [
        {
          "details": "The contract is already initialized."
        }
      ],
      "NotInitializing()": [
        {
          "details": "The contract is not initializing."
        }
      ],
      "OwnableInvalidOwner(address)": [
        {
          "details": "The owner is not a valid owner account. (eg. `address(0)`)"
        }
      ],
      "OwnableUnauthorizedAccount(address)": [
        {
          "details": "The caller account is not authorized to perform an operation."
        }
      ],
      "SafeERC20FailedOperation(address)": [
        {
          "details": "An operation with an ERC-20 token failed."
        }
      ]
    },
    "events": {
      "Approval(address,address,uint256)": {
        "details": "Emitted when the allowance of a `spender` for an `owner` is set by a call to {approve}. `value` is the new allowance."
      },
      "Initialized(uint64)": {
        "details": "Triggered when the contract has been initialized or reinitialized."
      },
      "PreCrimeSet(address)": {
        "details": "Emitted when the preCrime contract address is set.",
        "params": {
          "preCrimeAddress": "The address of the preCrime contract."
        }
      },
      "Transfer(address,address,uint256)": {
        "details": "Emitted when `value` tokens are moved from one account (`from`) to another (`to`). Note that `value` may be zero."
      }
    },
    "kind": "dev",
    "methods": {
      "allowInitializePath((uint32,bytes32,uint64))": {
        "details": "This indicates to the endpoint that the OApp has enabled msgs for this particular path to be received.This defaults to assuming if a peer has been set, its initialized. Can be overridden by the OApp if there is other logic to determine this.",
        "params": {
          "origin": "The origin information containing the source endpoint and sender address."
        },
        "returns": {
          "_0": "Whether the path has been initialized."
        }
      },
      "allowance(address,address)": {
        "details": "See {IERC20-allowance}."
      },
      "approvalRequired()": {
        "details": "In the case of OFT where the contract IS the token, approval is NOT required.",
        "returns": {
          "_0": "requiresApproval Needs approval of the underlying token implementation."
        }
      },
      "approve(address,uint256)": {
        "details": "See {IERC20-approve}. NOTE: If `value` is the maximum `uint256`, the allowance is not updated on `transferFrom`. This is semantically equivalent to an infinite approval. Requirements: - `spender` cannot be the zero address."
      },
      "balanceOf(address)": {
        "details": "See {IERC20-balanceOf}."
      },
      "burn(address,uint256)": {
        "details": "This function is only callable by the owner.",
        "params": {
          "amount": "The amount of tokens to burn.",
          "from": "The address to burn the token from."
        }
      },
      "combineOptions(uint32,uint16,bytes)": {
        "details": "If there is an enforced lzReceive option: - {gasLimit: 200k, msg.value: 1 ether} AND a caller supplies a lzReceive option: {gasLimit: 100k, msg.value: 0.5 ether} - The resulting options will be {gasLimit: 300k, msg.value: 1.5 ether} when the message is executed on the remote lzReceive() function.This presence of duplicated options is handled off-chain in the verifier/executor.",
        "params": {
          "_eid": "The endpoint ID.",
          "_extraOptions": "Additional options passed by the caller.",
          "_msgType": "The OAPP message type."
        },
        "returns": {
          "_0": "options The combination of caller specified options AND enforced options."
        }
      },
      "decimals()": {
        "details": "This token is linked to the fiat currency of Kuwait which has 3 decimal places.This is also called \"local decimals\" in layerzero documentation.",
        "returns": {
          "_0": "The number of decimals."
        }
      },
      "isBlocked(address)": {
        "details": "Helper wrapper that handles blocklist operations for address types."
      },
      "isBlocked(bytes32)": {
        "details": "LayerZero uses bytes32 for addresses. This is to make it compatible with non-EVM chains."
      },
      "isComposeMsgSender((uint32,bytes32,uint64),bytes,address)": {
        "details": "_origin The origin information containing the source endpoint and sender address.  - srcEid: The source chain endpoint ID.  - sender: The sender address on the src chain.  - nonce: The nonce of the message._message The lzReceive payload.Applications can optionally choose to implement separate composeMsg senders that are NOT the bridging layer.The default sender IS the OAppReceiver implementer.",
        "params": {
          "_sender": "The sender address."
        },
        "returns": {
          "_0": "isSender Is a valid sender."
        }
      },
      "isPeer(uint32,bytes32)": {
        "details": "Check if the peer is considered 'trusted' by the OApp.Enables OAppPreCrimeSimulator to check whether a potential Inbound Packet is from a trusted source.",
        "params": {
          "_eid": "The endpoint ID to check.",
          "_peer": "The peer to check."
        },
        "returns": {
          "_0": "Whether the peer passed is considered 'trusted' by the OApp."
        }
      },
      "lzReceive((uint32,bytes32,uint64),bytes32,bytes,address,bytes)": {
        "details": "Entry point for receiving messages or packets from the endpoint.Entry point for receiving msg/packet from the LayerZero endpoint.",
        "params": {
          "_executor": "The address of the executor for the received message.",
          "_extraData": "Additional arbitrary data provided by the corresponding executor.",
          "_guid": "The unique identifier for the received LayerZero message.",
          "_message": "The payload of the received message.",
          "_origin": "The origin information containing the source endpoint and sender address.  - srcEid: The source chain endpoint ID.  - sender: The sender address on the src chain.  - nonce: The nonce of the message."
        }
      },
      "lzReceiveAndRevert(((uint32,bytes32,uint64),uint32,address,bytes32,uint256,address,bytes,bytes)[])": {
        "details": "Interface for pre-crime simulations. Always reverts at the end with the simulation results.WARNING: MUST revert at the end with the simulation results.Gives the preCrime implementation the ability to mock sending packets to the lzReceive function, WITHOUT actually executing them.",
        "params": {
          "_packets": "An array of InboundPacket objects representing received packets to be delivered."
        }
      },
      "lzReceiveSimulate((uint32,bytes32,uint64),bytes32,bytes,address,bytes)": {
        "details": "Is effectively an internal function because msg.sender must be address(this). Allows resetting the call stack for 'internal' calls.",
        "params": {
          "_executor": "The executor address for the packet.",
          "_extraData": "Additional data for the packet.",
          "_guid": "The unique identifier of the packet.",
          "_message": "The message payload of the packet.",
          "_origin": "The origin information containing the source endpoint and sender address.  - srcEid: The source chain endpoint ID.  - sender: The sender address on the src chain.  - nonce: The nonce of the message."
        }
      },
      "mint(address,uint256)": {
        "details": "This function is only callable by the owner.",
        "params": {
          "amount": "The amount of tokens to mint.",
          "to": "The address to mint the token to."
        }
      },
      "name()": {
        "details": "Returns the name of the token."
      },
      "nextNonce(uint32,bytes32)": {
        "details": "_srcEid The source endpoint ID._sender The sender address.The path nonce starts from 1. If 0 is returned it means that there is NO nonce ordered enforcement.Is required by the off-chain executor to determine the OApp expects msg execution is ordered.This is also enforced by the OApp.By default this is NOT enabled. ie. nextNonce is hardcoded to return 0.",
        "returns": {
          "nonce": "The next nonce."
        }
      },
      "oApp()": {
        "details": "Retrieves the address of the OApp contract.The simulator contract is the base contract for the OApp by default.If the simulator is a separate contract, override this function.",
        "returns": {
          "_0": "The address of the OApp contract."
        }
      },
      "oAppVersion()": {
        "returns": {
          "receiverVersion": "The version of the OAppReceiver.sol implementation.",
          "senderVersion": "The version of the OAppSender.sol implementation."
        }
      },
      "oftVersion()": {
        "details": "interfaceId: This specific interface ID is '0x02e49c2c'.version: Indicates a cross-chain compatible msg encoding with other OFTs.If a new feature is added to the OFT cross-chain msg encoding, the version will be incremented. ie. localOFT version(x,1) CAN send messages to remoteOFT version(x,1)",
        "returns": {
          "interfaceId": "The interface ID.",
          "version": "The version."
        }
      },
      "owner()": {
        "details": "Returns the address of the current owner."
      },
      "peers(uint32)": {
        "params": {
          "_eid": "The endpoint ID."
        },
        "returns": {
          "_0": "peer The address of the peer associated with the specified endpoint."
        }
      },
      "preCrime()": {
        "details": "Retrieves the address of the preCrime contract implementation.",
        "returns": {
          "_0": "The address of the preCrime contract."
        }
      },
      "quoteOFT((uint32,bytes32,uint256,uint256,bytes,bytes,bytes))": {
        "params": {
          "_sendParam": "The parameters for the send operation."
        },
        "returns": {
          "oftFeeDetails": "The details of OFT fees.",
          "oftLimit": "The OFT limit information.",
          "oftReceipt": "The OFT receipt information."
        }
      },
      "quoteSend((uint32,bytes32,uint256,uint256,bytes,bytes,bytes),bool)": {
        "details": "MessagingFee: LayerZero msg fee  - nativeFee: The native fee.  - lzTokenFee: The lzToken fee.",
        "params": {
          "_payInLzToken": "Flag indicating whether the caller is paying in the LZ token.",
          "_sendParam": "The parameters for the send() operation."
        },
        "returns": {
          "msgFee": "The calculated LayerZero messaging fee from the send() operation."
        }
      },
      "renounceOwnership()": {
        "details": "Leaves the contract without owner. It will not be possible to call `onlyOwner` functions. Can only be called by the current owner. NOTE: Renouncing ownership will leave the contract without an owner, thereby disabling any functionality that is only available to the owner."
      },
      "send((uint32,bytes32,uint256,uint256,bytes,bytes,bytes),(uint256,uint256),address)": {
        "details": "Since the base send function is external we can't call super.send() here.",
        "params": {
          "_fee": "The fee for the send operation.",
          "_refundAddress": "The address to refund the fee to.",
          "_sendParam": "The parameters for the send operation."
        },
        "returns": {
          "msgReceipt": "The receipt of the send operation.",
          "oftReceipt": "The receipt of the OFT operation."
        }
      },
      "setDelegate(address)": {
        "details": "Only the owner/admin of the OApp can call this function.Provides the ability for a delegate to set configs, on behalf of the OApp, directly on the Endpoint contract.",
        "params": {
          "_delegate": "The address of the delegate to be set."
        }
      },
      "setEnforcedOptions((uint32,uint16,bytes)[])": {
        "details": "Sets the enforced options for specific endpoint and message type combinations.Only the owner/admin of the OApp can call this function.Provides a way for the OApp to enforce things like paying for PreCrime, AND/OR minimum dst lzReceive gas amounts etc.These enforced options can vary as the potential options/execution on the remote may differ as per the msgType. eg. Amount of lzReceive() gas necessary to deliver a lzCompose() message adds overhead you dont want to pay if you are only making a standard LayerZero message ie. lzReceive() WITHOUT sendCompose().",
        "params": {
          "_enforcedOptions": "An array of EnforcedOptionParam structures specifying enforced options."
        }
      },
      "setMsgInspector(address)": {
        "details": "Sets the message inspector address for the OFT.This is an optional contract that can be used to inspect both 'message' and 'options'.Set it to address(0) to disable it, or set it to a contract address to enable it.",
        "params": {
          "_msgInspector": "The address of the message inspector."
        }
      },
      "setPeer(uint32,bytes32)": {
        "details": "Only the owner/admin of the OApp can call this function.Indicates that the peer is trusted to send LayerZero messages to this OApp.Set this to bytes32(0) to remove the peer address.Peer is a bytes32 to accommodate non-evm chains.",
        "params": {
          "_eid": "The endpoint ID.",
          "_peer": "The address of the peer to be associated with the corresponding endpoint."
        }
      },
      "setPreCrime(address)": {
        "details": "Sets the preCrime contract address.",
        "params": {
          "_preCrime": "The address of the preCrime contract."
        }
      },
      "sharedDecimals()": {
        "details": "The shared decimals is used by layerzero on cross-chain calls.The following invariant must be maintained: shared decimals <= local decimalsThis is the \"scaling factor\" in a cross-chain call.",
        "returns": {
          "_0": "The number of decimals."
        }
      },
      "symbol()": {
        "details": "Returns the symbol of the token, usually a shorter version of the name."
      },
      "token()": {
        "details": "Retrieves the address of the underlying ERC20 implementation.In the case of OFT, address(this) and erc20 are the same contract.",
        "returns": {
          "_0": "The address of the OFT token."
        }
      },
      "totalSupply()": {
        "details": "See {IERC20-totalSupply}."
      },
      "transfer(address,uint256)": {
        "details": "See {IERC20-transfer}. Requirements: - `to` cannot be the zero address. - the caller must have a balance of at least `value`."
      },
      "transferFrom(address,address,uint256)": {
        "details": "See {IERC20-transferFrom}. Skips emitting an {Approval} event indicating an allowance update. This is not required by the ERC. See {xref-ERC20-_approve-address-address-uint256-bool-}[_approve]. NOTE: Does not update the allowance if the current allowance is the maximum `uint256`. Requirements: - `from` and `to` cannot be the zero address. - `from` must have a balance of at least `value`. - the caller must have allowance for ``from``'s tokens of at least `value`."
      },
      "transferOwnership(address)": {
        "details": "Transfers ownership of the contract to a new account (`newOwner`). Can only be called by the current owner."
      }
    },
    "title": "KWDK_OFT",
    "version": 1
  },
  "userdoc": {
    "kind": "user",
    "methods": {
      "allowInitializePath((uint32,bytes32,uint64))": {
        "notice": "Checks if the path initialization is allowed based on the provided origin."
      },
      "approvalRequired()": {
        "notice": "Indicates whether the OFT contract requires approval of the 'token()' to send."
      },
      "burn(address,uint256)": {
        "notice": "Burns a token."
      },
      "combineOptions(uint32,uint16,bytes)": {
        "notice": "Combines options for a given endpoint and message type."
      },
      "decimals()": {
        "notice": "Returns the number of decimals of the token."
      },
      "endpoint()": {
        "notice": "Retrieves the LayerZero endpoint associated with the OApp."
      },
      "isComposeMsgSender((uint32,bytes32,uint64),bytes,address)": {
        "notice": "Indicates whether an address is an approved composeMsg sender to the Endpoint."
      },
      "mint(address,uint256)": {
        "notice": "Mints a new token."
      },
      "nextNonce(uint32,bytes32)": {
        "notice": "Retrieves the next nonce for a given source endpoint and sender address."
      },
      "oAppVersion()": {
        "notice": "Retrieves the OApp version information."
      },
      "oftVersion()": {
        "notice": "Retrieves interfaceID and the version of the OFT."
      },
      "peers(uint32)": {
        "notice": "Returns the peer address (OApp instance) associated with a specific endpoint."
      },
      "quoteOFT((uint32,bytes32,uint256,uint256,bytes,bytes,bytes))": {
        "notice": "Provides a quote for OFT-related operations."
      },
      "quoteSend((uint32,bytes32,uint256,uint256,bytes,bytes,bytes),bool)": {
        "notice": "Provides a quote for the send() operation."
      },
      "send((uint32,bytes32,uint256,uint256,bytes,bytes,bytes),(uint256,uint256),address)": {
        "notice": "Sends a message to the LayerZero endpoint. This is extended with blocklist checks."
      },
      "setDelegate(address)": {
        "notice": "Sets the delegate address for the OApp."
      },
      "setPeer(uint32,bytes32)": {
        "notice": "Sets the peer address (OApp instance) for a corresponding endpoint."
      },
      "sharedDecimals()": {
        "notice": "Returns the number of shared decimals of the token."
      }
    },
    "notice": "A contract that implements the KWDK_OFT interface.",
    "version": 1
  },
  "storageLayout": {
    "storage": [],
    "types": null
  }
}